{
  "_format": "hh-sol-artifact-1",
  "contractName": "CalculatorTest",
  "sourceName": "contracts/test/CalculatorTest.sol",
  "abi": [
    {
      "inputs": [
        {
          "components": [
            {
              "internalType": "bytes[]",
              "name": "sources",
              "type": "bytes[]"
            },
            {
              "internalType": "uint256[]",
              "name": "constants",
              "type": "uint256[]"
            },
            {
              "internalType": "uint256",
              "name": "stackLength",
              "type": "uint256"
            },
            {
              "internalType": "uint256",
              "name": "argumentsLength",
              "type": "uint256"
            }
          ],
          "internalType": "struct StateConfig",
          "name": "config_",
          "type": "tuple"
        }
      ],
      "stateMutability": "nonpayable",
      "type": "constructor"
    },
    {
      "inputs": [
        {
          "internalType": "uint256",
          "name": "_size",
          "type": "uint256"
        },
        {
          "internalType": "uint256",
          "name": "_start",
          "type": "uint256"
        },
        {
          "internalType": "uint256",
          "name": "_end",
          "type": "uint256"
        }
      ],
      "name": "InvalidCodeAtRange",
      "type": "error"
    },
    {
      "inputs": [],
      "name": "WriteError",
      "type": "error"
    },
    {
      "anonymous": false,
      "inputs": [
        {
          "indexed": false,
          "internalType": "address",
          "name": "sender",
          "type": "address"
        },
        {
          "indexed": false,
          "internalType": "address",
          "name": "pointer",
          "type": "address"
        },
        {
          "components": [
            {
              "internalType": "uint256",
              "name": "stackIndex",
              "type": "uint256"
            },
            {
              "internalType": "uint256[]",
              "name": "stack",
              "type": "uint256[]"
            },
            {
              "internalType": "bytes[]",
              "name": "sources",
              "type": "bytes[]"
            },
            {
              "internalType": "uint256[]",
              "name": "constants",
              "type": "uint256[]"
            },
            {
              "internalType": "uint256[]",
              "name": "arguments",
              "type": "uint256[]"
            }
          ],
          "indexed": false,
          "internalType": "struct State",
          "name": "state_",
          "type": "tuple"
        }
      ],
      "name": "Snapshot",
      "type": "event"
    },
    {
      "inputs": [],
      "name": "run",
      "outputs": [
        {
          "internalType": "uint256",
          "name": "",
          "type": "uint256"
        }
      ],
      "stateMutability": "view",
      "type": "function"
    },
    {
      "inputs": [],
      "name": "runState",
      "outputs": [
        {
          "components": [
            {
              "internalType": "uint256",
              "name": "stackIndex",
              "type": "uint256"
            },
            {
              "internalType": "uint256[]",
              "name": "stack",
              "type": "uint256[]"
            },
            {
              "internalType": "bytes[]",
              "name": "sources",
              "type": "bytes[]"
            },
            {
              "internalType": "uint256[]",
              "name": "constants",
              "type": "uint256[]"
            },
            {
              "internalType": "uint256[]",
              "name": "arguments",
              "type": "uint256[]"
            }
          ],
          "internalType": "struct State",
          "name": "",
          "type": "tuple"
        }
      ],
      "stateMutability": "view",
      "type": "function"
    }
  ],
  "bytecode": "0x60e06040523480156200001157600080fd5b5060405162001a4c38038062001a4c8339810160408190526200003491620003d0565b60046080819052620000499060029062000550565b60a052620000616200005b8262000074565b6200016e565b6001600160a01b031660c0525062000753565b620000a76040518060a0016040528060008152602001606081526020016060815260200160608152602001606081525090565b6040518060a001604052806000815260200183604001516001600160401b03811115620000d857620000d862000290565b60405190808252806020026020018201604052801562000102578160200160208202803683370190505b508152602001836000015181526020018360200151815260200183606001516001600160401b038111156200013b576200013b62000290565b60405190808252806020026020018201604052801562000165578160200160208202803683370190505b50905292915050565b600080620001a8836040516020016200018891906200068e565b604051602081830303815290604052620001ed60201b6200012f1760201c565b90507ff95eed63f55d96a35306669cc3b5f652f8d44552e3e4b17b2f78f13571114abd338285604051620001df93929190620006aa565b60405180910390a192915050565b6000806200022783604051602001620002079190620006d8565b6040516020818303038152906040526200026260201b620001ba1760201c565b90508051602082016000f091506001600160a01b0382166200025c5760405163046a55db60e11b815260040160405180910390fd5b50919050565b60608151826040516020016200027a92919062000700565b6040516020818303038152906040529050919050565b634e487b7160e01b600052604160045260246000fd5b604051608081016001600160401b0381118282101715620002cb57620002cb62000290565b60405290565b604051601f8201601f191681016001600160401b0381118282101715620002fc57620002fc62000290565b604052919050565b60006001600160401b0382111562000320576200032062000290565b5060051b60200190565b60005b83811015620003475781810151838201526020016200032d565b8381111562000357576000848401525b50505050565b600082601f8301126200036f57600080fd5b8151602062000388620003828362000304565b620002d1565b82815260059290921b84018101918181019086841115620003a857600080fd5b8286015b84811015620003c55780518352918301918301620003ac565b509695505050505050565b60006020808385031215620003e457600080fd5b82516001600160401b0380821115620003fc57600080fd5b90840190608082870312156200041157600080fd5b6200041b620002a6565b8251828111156200042b57600080fd5b8301601f810188136200043d57600080fd5b80516200044e620003828262000304565b81815260059190911b8201860190868101908a8311156200046e57600080fd5b8784015b8381101562000504578051878111156200048c5760008081fd5b8501603f81018d136200049f5760008081fd5b89810151604089821115620004b857620004b862000290565b620004cc601f8301601f19168d01620002d1565b8281528f82848601011115620004e25760008081fd5b620004f3838e83018487016200032a565b865250505091880191880162000472565b50845250505082840151828111156200051c57600080fd5b6200052a888286016200035d565b858301525060408301516040820152606083015160608201528094505050505092915050565b600082198211156200057257634e487b7160e01b600052601160045260246000fd5b500190565b600081518084526020808501945080840160005b83811015620005a9578151875295820195908201906001016200058b565b509495945050505050565b80518252600060208083015160a082860152620005d560a086018262000577565b9050604084015185820360408701528181518084528484019150848160051b850101858401935060005b828110156200064957601f1980878403018552855180518085526200062a818b87018c85016200032a565b9689019695890195601f019091169290920187019150600101620005ff565b506060880151955088810360608a015262000665818762000577565b955050505050506080830151848203608086015262000685828262000577565b95945050505050565b602081526000620006a36020830184620005b4565b9392505050565b6001600160a01b038481168252831660208201526060604082018190526000906200068590830184620005b4565b6000815260008251620006f38160018501602087016200032a565b9190910160010192915050565b606360f81b815260e083901b6001600160e01b03191660018201526880600e6000396000f360b81b600582015281516000906200074581600e8501602087016200032a565b91909101600e019392505050565b60805160a05160c0516112c362000789600039600060a801526000818161056501526105c50152600061059201526112c36000f3fe608060405234801561001057600080fd5b50600436106100365760003560e01c806345c6a7a61461003b578063c040622614610059575b600080fd5b61004361006f565b6040516100509190610b6d565b60405180910390f35b6100616100ee565b604051908152602001610050565b6100a16040518060a0016040528060008152602001606081526020016060815260200160608152602001606081525090565b60006100cc7f00000000000000000000000000000000000000000000000000000000000000006101e6565b90506100e96040518060200160405280600081525082600061023a565b919050565b6000806100f961006f565b90508060200151600182600001516101119190610c97565b8151811061012157610121610cae565b602002602001015191505090565b60008061015a836040516020016101469190610cdd565b6040516020818303038152906040526101ba565b90508051602082016000f0915073ffffffffffffffffffffffffffffffffffffffff82166101b4576040517f08d4abb600000000000000000000000000000000000000000000000000000000815260040160405180910390fd5b50919050565b60608151826040516020016101d0929190610d03565b6040516020818303038152906040529050919050565b6102186040518060a0016040528060008152602001606081526020016060815260200160608152602001606081525090565b610221826103cf565b8060200190518101906102349190610fd2565b92915050565b602082810151604084015183830201909101516060840151608085015182516000948594859492939092915b848810156103c2576002880197508784015180601e1a975080601f1a96505060048710156103b65760018714156102c95781608087166102a35750825b8a516020607f89160260200182015160208202602001840152600181018c525050610266565b60028714156102f45789516020870260200182015160208202602001830152600181018b5250610266565b600387141561030d576103088b8b886103fd565b610266565b607f6101fe600188901b161786166080871615610379578a517fffffffffffffffffffffffffffffffffffffffffffffffffffffffffffffffff01808c5260208c01518051909190811061036357610363610cae565b6020026020010151600014156103795750610266565b8060000b6000146103b05760008160000b12156103a457801960020160020260ff16890398506103b0565b8060020260ff16890198505b50610266565b6103088b8b8989610563565b5050505050505050505050565b60606102348260017fffffffffffffffffffffffffffffffffffffffffffffffffffffffffffffffff6105f2565b81517fffffffffffffffffffffffffffffffffffffffffffffffffffffffffffffffff600583901c918290030183526007821690610100600384811c1681901c91908290039060010160008167ffffffffffffffff81111561046157610461610d9a565b60405190808252806020026020018201604052801561048a578160200160208202803683370190505b50905060005b828110156104e157876020015181896000015101815181106104b4576104b4610cae565b60200260200101518282815181106104ce576104ce610cae565b6020908102919091010152600101610490565b5060005b6101008110156105585760005b83811015610545578482860384838151811061051057610510610cae565b6020026020010151901b901c8960800151828151811061053257610532610cae565b60209081029190910101526001016104f2565b5061055189898861023a565b84016104e5565b505050505050505050565b7f00000000000000000000000000000000000000000000000000000000000000008210156105be576105b984847f00000000000000000000000000000000000000000000000000000000000000008503846106e0565b6105ec565b6105ec84847f00000000000000000000000000000000000000000000000000000000000000008503846107bc565b50505050565b6060833b806106115750506040805160208101909152600081526106d9565b8084111561062f5750506040805160208101909152600081526106d9565b8383101561067f576040517f2c4a89fa0000000000000000000000000000000000000000000000000000000081526004810182905260248101859052604481018490526064015b60405180910390fd5b83830384820360008282106106945782610696565b815b60408051603f83017fffffffffffffffffffffffffffffffffffffffffffffffffffffffffffffffe0168101909152818152955090508087602087018a3c505050505b9392505050565b6002821061074a576040517f08c379a000000000000000000000000000000000000000000000000000000000815260206004820152600a60248201527f4d41585f4f50434f4445000000000000000000000000000000000000000000006044820152606401610676565b816107815743836020015184600001518151811061076a5761076a610cae565b6020908102919091010152825160010183526105ec565b60018214156105ec574283602001518460000151815181106107a5576107a5610cae565b602090810291909101015250508051600101905250565b60088210610826576040517f08c379a000000000000000000000000000000000000000000000000000000000815260206004820152600a60248201527f4d41585f4f50434f4445000000000000000000000000000000000000000000006044820152606401610676565b8251818103808552602085015180517fffffffffffffffffffffffffffffffffffffffffffffffffffffffffffffffff9093019282916000918390811061086f5761086f610cae565b6020026020010151905060008614156108c7575b838210156108c25760208701518051600190930192839081106108a8576108a8610cae565b6020026020010151816108bb91906110b5565b9050610883565b610ad3565b6001861415610910575b838210156108c25760208701518051600190930192839081106108f6576108f6610cae565b6020026020010151816109099190610c97565b90506108d1565b6002861415610959575b838210156108c257602087015180516001909301928390811061093f5761093f610cae565b60200260200101518161095291906110cd565b905061091a565b60038614156109a2575b838210156108c257602087015180516001909301928390811061098857610988610cae565b60200260200101518161099b9190611139565b9050610963565b60048614156109eb575b838210156108c25760208701518051600190930192839081106109d1576109d1610cae565b6020026020010151816109e4919061114d565b90506109ac565b6005861415610a33575b838210156108c2576020870151805160019093019283908110610a1a57610a1a610cae565b602002602001015181610a2d9190611281565b506109f5565b6006861415610a855760005b84831015610a7f576020880151805160019094019384908110610a6457610a64610cae565b6020026020010151905081811015610a7a578091505b610a3f565b50610ad3565b6007861415610ad35760005b84831015610ad1576020880151805160019094019384908110610ab657610ab6610cae565b6020026020010151905081811115610acc578091505b610a91565b505b8087602001518481518110610aea57610aea610cae565b6020908102919091010152505084516001019094525050505050565b600081518084526020808501945080840160005b83811015610b3657815187529582019590820190600101610b1a565b509495945050505050565b60005b83811015610b5c578181015183820152602001610b44565b838111156105ec5750506000910152565b600060208083528351818401528084015160a06040850152610b9260c0850182610b06565b905060408501517fffffffffffffffffffffffffffffffffffffffffffffffffffffffffffffffe0808684030160608701528282518085528585019150858160051b860101868501945060005b82811015610c21578487830301845285518051808452610c04818b86018c8501610b41565b9689019694890194601f0186169290920188019150600101610bdf565b5060608a01519650838982030160808a0152610c3d8188610b06565b965050505060808701519250808685030160a08701525050610c5f8282610b06565b95945050505050565b7f4e487b7100000000000000000000000000000000000000000000000000000000600052601160045260246000fd5b600082821015610ca957610ca9610c68565b500390565b7f4e487b7100000000000000000000000000000000000000000000000000000000600052603260045260246000fd5b6000815260008251610cf6816001850160208701610b41565b9190910160010192915050565b7f630000000000000000000000000000000000000000000000000000000000000081527fffffffff000000000000000000000000000000000000000000000000000000008360e01b1660018201527f80600e6000396000f30000000000000000000000000000000000000000000000600582015260008251610d8c81600e850160208701610b41565b91909101600e019392505050565b7f4e487b7100000000000000000000000000000000000000000000000000000000600052604160045260246000fd5b60405160a0810167ffffffffffffffff81118282101715610dec57610dec610d9a565b60405290565b604051601f82017fffffffffffffffffffffffffffffffffffffffffffffffffffffffffffffffe016810167ffffffffffffffff81118282101715610e3957610e39610d9a565b604052919050565b600067ffffffffffffffff821115610e5b57610e5b610d9a565b5060051b60200190565b600082601f830112610e7657600080fd5b81516020610e8b610e8683610e41565b610df2565b82815260059290921b84018101918181019086841115610eaa57600080fd5b8286015b84811015610ec55780518352918301918301610eae565b509695505050505050565b6000601f8381840112610ee257600080fd5b82516020610ef2610e8683610e41565b82815260059290921b85018101918181019087841115610f1157600080fd5b8287015b84811015610fc657805167ffffffffffffffff80821115610f365760008081fd5b818a0191508a603f830112610f4b5760008081fd5b85820151604082821115610f6157610f61610d9a565b610f90887fffffffffffffffffffffffffffffffffffffffffffffffffffffffffffffffe08c85011601610df2565b92508183528c81838601011115610fa75760008081fd5b610fb682898501838701610b41565b5050845250918301918301610f15565b50979650505050505050565b600060208284031215610fe457600080fd5b815167ffffffffffffffff80821115610ffc57600080fd5b9083019060a0828603121561101057600080fd5b611018610dc9565b8251815260208301518281111561102e57600080fd5b61103a87828601610e65565b60208301525060408301518281111561105257600080fd5b61105e87828601610ed0565b60408301525060608301518281111561107657600080fd5b61108287828601610e65565b60608301525060808301518281111561109a57600080fd5b6110a687828601610e65565b60808301525095945050505050565b600082198211156110c8576110c8610c68565b500190565b6000817fffffffffffffffffffffffffffffffffffffffffffffffffffffffffffffffff048311821515161561110557611105610c68565b500290565b7f4e487b7100000000000000000000000000000000000000000000000000000000600052601260045260246000fd5b6000826111485761114861110a565b500490565b60008261115c5761115c61110a565b500690565b600181815b808511156111ba57817fffffffffffffffffffffffffffffffffffffffffffffffffffffffffffffffff048211156111a0576111a0610c68565b808516156111ad57918102915b93841c9390800290611166565b509250929050565b6000826111d157506001610234565b816111de57506000610234565b81600181146111f457600281146111fe5761121a565b6001915050610234565b60ff84111561120f5761120f610c68565b50506001821b610234565b5060208310610133831016604e8410600b841016171561123d575081810a610234565b6112478383611161565b807fffffffffffffffffffffffffffffffffffffffffffffffffffffffffffffffff0482111561127957611279610c68565b029392505050565b60006106d983836111c256fea264697066735822122064857156a28ef25e1998bec340f3fe04fe6c100361c1445e488db70ffb1db29164736f6c634300080a0033",
  "linkReferences": {},
  "deployedLinkReferences": {}
}